S00A000076352E737265636F
S11300000C941B020C943A020C943A020C943A029B
S11300100C943A020C943A020C943A020C943A026C
S11300200C943A020C943A020C9445030C943A0250
S11300300C94C1150C943A020C943A020C943A02B2
S11300400C9458050C943A020C943A020C943A021B
S11300500C943A020C943A020C943A020C943A022C
S11300600C943A020C943A020C943A020C943A021C
S11300700C943A020C943A020C943A020C943A020C
S11300800C943A020C943A020C943A022B0A350A64
S11300903F0A490A540A5F0A6A0A170A210AC00B6E
S11300A0B80BB30BDD0BD00BD80BC80B910B890B22
S11300B0840B7C0BE50B990B6F0B570B050CAE0BEC
S11300C0A60B9E0B250C5F0B150C670B320CFD0B5E
S11300D01D0C770BF50BED0B0D0C520B200B180BB5
S11300E0280B2A0C0B0B030B2D0BE60A4A0B130BE4
S11300F0F60AEE0A3A0BFE0A320BDE0AC40A420B77
S1130100B40AAC0AD10AC90AD60AA70ABC0A8F0AD9
S11301109F0A8A0A820A7A0A750A970A3C0D5A0DBE
S1130120360D480D2A0D300D2A0D300D600D3C0D95
S11301305A0D360D480D420D240D420D240D900D1F
S1130140CF0D810DFF0D810DC30DBD0D240D960D39
S1130150240DA80D4E0DED0D2A0DE10D660DE70DD4
S11301606C0DF30DB70D540D4E0D9C0D720D3C0D21
S11301705A0D360D480D2A0D300D2A0D300D600D27
S11301803C0DC90D540D360D420D240D420D240DA8
S1130190900DD50DA20D600DDB0D960D660D6C0D49
S11301A04E0D540DF90D720D170E3E0E110E380E34
S11301B0C20EBC0E110E3E0E440E1D0ECE0E110EBE
S11301C0170E380E110E830E110E2C0E170E5C0E28
S11301D0440E1D0E560EE00E2C0E4A0EEF0E9E0E11
S11301E04A0EB60E110E170E380E110E7D0E1D0E90
S11301F03E0E110E2C0E170E5C0E440E1D0EDA0E62
S11302006E0E680E320E620E500E320EAA0EB00E34
S1130210A40E6E0E680E320E620E500EC80ED40E70
S1130220560E890E8F0E35142614201411140B1437
S1130230FC13F613F013EA13E413D513CF13C91305
S1130240BA13B413A5139F1390138A137B13751356
S11302506F136913631354134E13481342133C135F
S11302602D132713181312130C130613F712F1127C
S1130270E212DC12CD12C712B812B212A3129D12EE
S11302808E12881282127C127612671261125B122D
S113029055124F1240123A122B1225121F12191224
S11302A00A120412FE11F811F211E311DD11CE113C
S11302B0C811C211BC11AD11A711A1119B118C1150
S11302C0861180117A11741165115F1150114A1150
S11302D03B1135112611201111110B110511FF10BD
S11302E0F910EA10E410D510CF10C910C310B410DF
S11302F0AE10A810A21093108D107E107810691003
S1130300631054104E103F1039102A102410151089
S11303100F1009100310FD0FEE0FE80FE20FD30FBB
S1130320CD0FBE0FB80FA90FA30F940F8E0F880F18
S1130330820F730F6D0F5E0F580F490F430F340F69
S11303402E0F280F220F1C0F0D0F070F010F3B1448
S11303506B1456146B1456146B14561492145614CE
S1130360921477146514AA146514981486147114DD
S1130370561471145614711456148C1456148C1487
S113038077149E14A41456146514B0148614E3143C
S1130390D114C214D114C214D114C2144F15E314CD
S11303A00415C2140415C2140415C2146115E3140F
S11303B0D114C214D114C214D114C2144315DD14BF
S11303C0C214DD14C214DD14C2141015F814C214BE
S11303D0F814C214F814C2143115E314D114C2145D
S11303E0D114C214D114C2145515DD14C214DD1471
S11303F0C214DD141015FE14C214FE14C214FE142B
S1130400C2145B152515D714C214D714C214F214E0
S11304100A152B15D714C214D714C214F2140A15D2
S11304202515D714C214D714C214F214491516157D
S1130430371516153D1511241FBECFEFD0E1DEBFD1
S1130440CDBF11E0A0E0B1E0EAE2FDE200E00BBFC5
S113045002C007900D92A636B107D9F721E0A6E6AF
S1130460B1E001C01D92AF39B207E1F70E94041652
S11304700C9493160C94000087E687B987E886B934
S11304800895369A349BFECF349A84B195B10024F2
S1130490880F991F001C880F991F001C892F902D0D
S11304A00895EBE8F0E0808182688083EAE8F0E078
S11304B08081896180838FEF9FE090938100809396
S11304C0800085E595E090938700809386000895E9
S11304D087B7806487BF85B5896785BD0895809196
S11304E0670185FF10C0809107018D3008F5809168
S11304F007018C3071F180910701882319F1109262
S1130500660180E0089580916601882351F080910E
S113051007018C30A1F380910701845F8093070168
S1130520EECF809107018C3051F710920701E7CF8D
S1130530809107018C508093070181E080936601CC
S113054080E008958CE0809307011092660180E0BA
S1130550089581E080936601D4CF90910501809144
S11305606D01981761F1809105018C3320F1809120
S113057005018C5380930501809106018F5F809360
S11305800601809106018C33B0F0809106018C53F2
S113059080930601809107018F5F8093070180910A
S11305A0670185FF0EC0809107018C30D1F08091E6
S11305B007018D3080F48091050180936D0180E006
S11305C00895809107018831B0F380910701885123
S11305D080930701F0CF809107018C50809307012D
S11305E0EACF80916601805880936601E4CF9DEC48
S11305F0699F912D11249695969596953AE0939F2F
S113060060191124213071F098F0233021F0243046
S113061049F08FEB089586FD11C082FD07C0862F37
S11306200C94360686FD18C082FF1FC088E8089522
S113063086FD04C082FF1CC089E808958DEC489FA4
S1130640812D11248695869586959AE0899F401977
S11306501124842F0C9436068DEC489F812D11248F
S11306608695869586950C943606892F0C943606C5
S113067085FFD5CF862F0E94360690916601979507
S1130680992797959095892308951F920F920FB6F5
S11306900F9211240BB60F922F933F934F935F93B6
S11306A06F937F938F939F93AF93BF93CF93EF9366
S11306B0FF93809177018F5F8038B1F08093770149
S11306C0FF91EF91CF91BF91AF919F918F917F91C6
S11306D06F915F914F913F912F910F900BBE0F90AF
S11306E00FBE0F901F901895109277018FEF83BD66
S11306F0369A349BFECF349A84B195B19091060119
S113070080910301981709F41BC18091670182FD50
S1130710B8C080E588BB1ABACFEFCBBB000080918C
S1130720670164E00E940F0680936701809167016E
S113073066E00E940F06809367018091670167E07D
S11307400E940F06809367018091670165E00E9413
S11307500F0680936701CABB00008091670187FD83
S1130760B3C0209167018091750185958595859524
S113077085958595082E000C990B22952695277052
S1130780822780FD9EC080916701809375018091CE
S113079067010E94060680937401382F33703093EA
S11307A07301869586958370809372019091670199
S11307B02091670194FD5FC026FF24C120910301AD
S11307C09091040146E0E0917101EE0FEE0FE82BE9
S11307D080937101F0E0E85FFE4F8081813009F47D
S11307E0A9C0823009F4A0C08091700184300CF457
S11307F061C0109270019F5FE0916F01EE0FEE0FE8
S1130800E32BF0E0E85FFE4F808130936F0181308D
S113081009F4E8C0823009F4DFC080916E018430AD
S11308200CF441C010926E012F5F463009F49AC057
S1130830443009F4EBC04091000150910101BA0128
S113084032E39302600D711D1124CB0162E3260291
S1130850800D911D1124811570E197070CF4C8C017
S11308608FEF9FE0909301018093000190938700A4
S11308708093860025CF209106019091070144E0E2
S1130880A2CF809176018F5F809376018F7009F0FB
S113089040CF80919D0190919E01019690939E017D
S11308A080939D0136CF8D3F0CF0BFCF10926E0127
S11308B02150BBCF8D3F0CF09FCF1092700191500F
S11308C09BCF0E946F025FCF809167018F778093E7
S11308D06701809167018B7F809367018091030199
S11308E0865F8093030160E081E00E94C70683E392
S11308F091E00E94440867E082E00E94C70680916C
S113090004018A3008F4C9C0809104010E940607DA
S11309108AE30E942C08809103010E9406070E942A
S11309208615109276011DCF8091700181508093BD
S113093070015CCF809170018F5F8093700156CFFE
S113094090910701809104019813DFCE8091670193
S11309508695869509F4A9C0809167018460809387
S11309606701D3CE2C330CF48EC02C5398310CF089
S113097092C097FD8EC0209303019093040140918F
S11309800301609105018091670120E00E94F70254
S11309908093680140910301609105018091670192
S11309A021E00E94F7028093690140910401609163
S11309B006018091670123E00E94F70280936B0196
S11309C040910401609106018091670124E00E9436
S11309D0F70280936C0174CE80916E0181508093F4
S11309E06E011DCF80916E018F5F80936E0117CFD2
S11309F08333910514F484E390E090930101809390
S1130A00000134CF40E020E090E0DDCE2C330CF048
S1130A103EC027FD48C098310CF043C097FD97E1D4
S1130A201092050120930601909307014091030160
S1130A30609106018091670120E00E94F702809393
S1130A40680140910301609106018091670121E0F2
S1130A500E94F702809369014091040160910701AB
S1130A608091670123E00E94F70280936B0140911B
S1130A700401609107018091670124E00E94F7025C
S1130A8080936C011DCE27FF71CF245C6FCF2C5354
S1130A90C2CF97E170CF90E06ECF80E30E942C0824
S1130AA033CF90E0BDCF245CB6CF0E94901554CFD5
S1130AB01F920F920FB60F9211240BB60F922F9321
S1130AC03F934F935F936F937F938F939F93AF93D2
S1130AD0BF93EF93FF93809105018F5F809305018E
S1130AE00E94AD028091670182FF0CC080910501D4
S1130AF060E080FF4DC081E00E94C70684E491E07D
S1130B000E9444088091050180FD4DC08FEF8093C1
S1130B106A0140910301609105018091670120E021
S1130B200E94F702809368014091030160910501DE
S1130B308091670121E00E94F7028093690140914E
S1130B400401609106018091670123E00E94F7028D
S1130B5080936B01409104016091060180916701CB
S1130B6024E00E94F70280936C01FF91EF91BF9102
S1130B70AF919F918F917F916F915F914F913F9131
S1130B802F910F900BBE0F900FBE0F901F901895D2
S1130B9081E00E94C70685E591E00E9444088091A7
S1130BA0050180FFB3CF8CEF80936A01B2CF80B789
S1130BB0886080BF87B7816087BF83B7856083BF44
S1130BC00895482FE82FF0E099B3EE0FFF1FE8587F
S1130BD0FE4F20813181220F331F306E892F90E028
S1130BE002C0959587954A95E2F781709927282B3D
S1130BF0392B3183208381E02115304F09F080E0C7
S1130C00089580E58DB981E08EB908951E9A8FB953
S1130C10779BFECF1E98C09AC0988FB10895E62F97
S1130C20F0E099B3EE0FFF1FE858FE4F20813181A9
S1130C30220F331FA901506E292F30E0062E02C067
S1130C40359527950A94E2F721703327242B352B09
S1130C50318320832115304F09F0089521E030E0DD
S1130C6001C0220F6A95EAF7822708958A3030F48A
S1130C70E82FF0E0E85EFE4F808108958FEC089540
S1130C80E2E6F0E08081886080838081877F8083D2
S1130C9008951FB8779BFECF81E08FB9779BFECF75
S1130CA08091620088608093620080916200877FF7
S1130CB0809362008FE891E00197F1F700C0000093
S1130CC08FE39FE10197F1F700C0000008951FB87A
S1130CD0779BFECF80E88FB9779BFECF809162002F
S1130CE088608093620080916200877F80936200B5
S1130CF08FE891E00197F1F700C0000008951FB854
S1130D00779BFECF80EC8FB9779BFECF80916200FA
S1130D1088608093620080916200877F8093620084
S1130D208FE891E00197F1F700C0000008951FB823
S1130D30779BFECF8FE08FB9779BFECF80916200C7
S1130D4088608093620080916200877F8093620054
S1130D508FE891E00197F1F700C0000008951FB8F3
S1130D60779BFECF8CE08FB9779BFECF809162009A
S1130D7088608093620080916200877F8093620024
S1130D808FE891E00197F1F700C000000895603109
S1130D9020F4813019F08230C9F0089560581FB8EA
S1130DA0779BFECF6FB9779BFECF809162008860FE
S1130DB08093620080916200877F809362008FE855
S1130DC091E00197F1F700C0000008956054E7CF67
S1130DD020E130E041E090E24FB9779BFECF9FB92C
S1130DE0779BFECF8091620088608093620080913F
S1130DF06200877F80936200EFE8F1E03197F1F7BA
S1130E0000C000002150310939F70895843608F4F0
S1130E105BC09CE9980F943608F459C0885C22E3BF
S1130E2091E09FB9779BFECF2FB9779BFECF90912E
S1130E30620098609093620090916200977F909313
S1130E406200EFE8F1E03197F1F700C000008A306A
S1130E5008F440C090E09F5F8A508A30E0F721E0B8
S1130E602FB9779BFECF905D9FB9779BFECF909172
S1130E70620098609093620090916200977F9093D3
S1130E806200EFE8F1E03197F1F700C00000882339
S1130E90C9F0805D91E09FB9779BFECF8FB9779BB6
S1130EA0FECF80916200886080936200809162002E
S1130EB0877F809362008FE891E00197F1F700C08B
S1130EC00000089580E3E6CF8A3020F6E0CF892F32
S1130ED021E3A6CF90E0C3CF803127E2920708F444
S1130EE0A5C020E02F5F80519742803137E29307FD
S1130EF0C8F731E03FB9779BFECF205D2FB9779BD0
S1130F00FECF20916200286020936200209162004D
S1130F10277F20936200EFE8F1E03197F1F700C0FA
S1130F200000883EF3E09F0708F494C020E02F5FA0
S1130F30885E9340883E33E09307C8F731E03FB9B9
S1130F40779BFECF205D2FB9779BFECF2091620067
S1130F5028602093620020916200277F2093620022
S1130F60EFE8F1E03197F1F700C000008436910515
S1130F7008F46CC020E02F5F8456910984369105F3
S1130F80D0F731E03FB9779BFECF205D2FB9779B37
S1130F90FECF2091620028602093620020916200BD
S1130FA0277F20936200EFE8F1E03197F1F700C06A
S1130FB000008A30910508F447C020E02F5F0A97AB
S1130FC08A309105D8F731E03FB9779BFECF205D99
S1130FD02FB9779BFECF2091620028602093620096
S1130FE020916200277F20936200EFE8F1E03197BF
S1130FF0F1F700C00000009759F1805D91E09FB9BE
S1131000779BFECF8FB9779BFECF8091620088607B
S11310108093620080916200877F809362008FE8F2
S113102091E00197F1F700C000000895883E23E0A5
S1131030920708F07BCF8436910508F09BCF8A3065
S1131040910508F0BACFD7CF20E0BDCF20E099CFEB
S113105080E3D4CF20E072CF91E09FB9779BFECF9D
S11310608FB9779BFECF8091620088608093620085
S113107080916200877F809362008FE891E00197FE
S1131080F1F700C000000895FC0140E050E060E08A
S113109071E07FB9779BFECFDF01A40FB51F8C9160
S11310A08FB9779BFECF9091620098609093620015
S11310B090916200977F909362008FE891E001978E
S11310C0F1F700C000006F5F462F50E0DF010D9084
S11310D00020E9F79D012E1B3F0B225031092417F4
S11310E03507B8F60895E1E6F0E0808188608083F2
S11310F088B388BB87B3876087BB80E58DB981E0FF
S11311008EB90895809161008860809361008FE5B5
S11311109AEE0197F1F700C000001FB8779BFECF4D
S113112088E38FB9779BFECF8091620088608093BB
S1131130620080916200877F809362008FE891E073
S11311400197F1F700C000008FE19EE40197F1F7E9
S113115000C000001FB8779BFECF88E08FB9779B53
S1131160FECF80916200886080936200809162006B
S1131170877F809362008FE891E00197F1F700C0C8
S113118000008FE39FE10197F1F700C000001FB852
S1131190779BFECF86E08FB9779BFECF809162006C
S11311A088608093620080916200877F80936200F0
S11311B08FE891E00197F1F700C000001FB8779B1A
S11311C0FECF80E48FB9779BFECF80916200886068
S11311D08093620080916200877F809362008FE831
S11311E091E00197F1F700C0000081E08FB9779B8F
S11311F0FECF8EE08FB9779BFECF8091620088602E
S11312008093620080916200877F809362008FE800
S113121091E00197F1F700C0000081E08FB9779B5E
S1131220FECF8BE18FB9779BFECF809162008860FF
S11312308093620080916200877F809362008FE8D0
S113124091E00197F1F700C0000081E08FB9779B2E
S1131250FECF81E18FB9779BFECF809162008860D9
S11312608093620080916200877F809362008FE8A0
S113127091E00197F1F700C0000081E08FB9779BFE
S1131280FECF81E18FB9779BFECF809162008860A9
S11312908093620080916200877F809362008FE870
S11312A091E00197F1F700C0000081E08FB9779BCE
S11312B0FECF81E18FB9779BFECF80916200886079
S11312C08093620080916200877F809362008FE840
S11312D091E00197F1F700C0000081E08FB9779B9E
S11312E0FECF81E18FB9779BFECF80916200886049
S11312F08093620080916200877F809362008FE810
S113130091E00197F1F700C0000081E08FB9779B6D
S1131310FECF81E18FB9779BFECF80916200886018
S11313208093620080916200877F809362008FE8DF
S113133091E00197F1F700C0000081E08FB9779B3D
S1131340FECF8FE18FB9779BFECF809162008860DA
S11313508093620080916200877F809362008FE8AF
S113136091E00197F1F700C000001FB8779BFECF12
S113137081E08FB9779BFECF809162008860809373
S1131380620080916200877F809362008FE891E021
S11313900197F1F700C000008FE19EE40197F1F797
S11313A000C000001FB8779BFECF8CE08FB9779BFD
S11313B0FECF809162008860809362008091620019
S11313C0877F809362008FE891E00197F1F700C076
S11313D000000895929A91E09093880110929E01E2
S11313E010929D0190E090939C0180939B0108953D
S11313F0582F92981092880110929E0110929D018C
S113140030E030939C0120939B01842F90E089303D
S1131410910518F01BBC1ABC08958A5B9F4FFC0110
S1131420852F550F990BAA0BBB0B0C948A16FC0144
S1131430E154F109E730F10578F7E15BFF4F0C94D3
S11314408A16FC01E154F109E730F10528F7EA5A5C
S1131450FF4F0C948A16FC01E154F109E730F105C1
S1131460D8F6E35AFF4F0C948A16FC01E154F109B3
S1131470E730F10588F6EC59FF4F0C948A16FC010D
S1131480E154F109E730F10538F6E559FF4F0C94C2
S11314908A16FC01E154F109E730F10508F0BCCFEC
S11314A0EE58FF4F0C948A16FC01E154F109E73021
S11314B0F10508F0B1CFE758FF4F0C948A16FC01F0
S11314C0E154F109E730F10508F0A6CFE058FF4FE9
S11314D00C948A16FC01E154F109E730F10508F097
S11314E09BCFE957FF4F0C948A1688E590E09BBD8B
S11314F08ABD0895662309F40FC283E690E09BBD7C
S11315008ABD0895662309F411C28FE690E09BBD5D
S11315108ABD089586E790E09BBD8ABD0895662341
S113152009F4FFC18AE490E09BBD8ABD0895662357
S113153009F401C283E590E09BBD8ABD089566234A
S113154009F4B8C182E490E09BBD8ABD089581EBA3
S113155090E09BBD8ABD0895662309F4D3C185E854
S113156090E09BBD8ABD0895662309F4C1C185E955
S113157090E09BBD8ABD0895662309F4BEC187EA45
S113158090E09BBD8ABD089584E691E09BBD8ABD31
S11315900895662309F4BBC180EE90E09BBD8ABD2B
S11315A008958DEE90E09BBD8ABD0895662309F4ED
S11315B08BC187EC90E09BBD8ABD0895662309F436
S11315C074C180E991E09BBD8ABD0895662309F446
S11315D0CBC184E893E09BBD8ABD0895662309F4DA
S11315E0AFC18BE291E09BBD8ABD0895662309F4E7
S11315F0B1C182EA92E09BBD8ABD08958CED91E071
S11316009BBD8ABD0895662309F459C187E192E020
S11316109BBD8ABD0895662309F4B0C188E592E0B4
S11316209BBD8ABD08958AEC92E09BBD8ABD089556
S1131630662309F435C186E496E09BBD8ABD08950E
S1131640662309F482C18AE097E09BBD8ABD0895B0
S113165086E995E09BBD8ABD08958AEB93E09BBD26
S11316608ABD0895662309F47AC181EC91E09BBD9B
S11316708ABD0895662309F47CC18BE091E09BBD8B
S11316808ABD0895662309F47EC180E591E09BBD7F
S11316908ABD0895662309F4ADC182E293E09BBD3F
S11316A08ABD089586E797E09BBD8ABD08956623A9
S11316B009F40FC18EEC92E19BBD8ABD08956623A7
S11316C009F47AC18DE195E19BBD8ABD0895662335
S11316D009F4DCC080E698E09BBD8ABD08956623CA
S11316E009F492C180E190E09BBD8ABD08958EE229
S11316F09BE09BBD8ABD0895662309F449C18BE133
S113170090E09BBD8ABD08958CE190E09BBD8ABDAD
S11317100895662309F441C187E090E09BBD8ABD2A
S11317200895662309F4DAC08BE090E09BBD8ABD7E
S1131730089582E190E09BBD8ABD0895662309F473
S11317409BC089E199E19BBD8ABD0895662309F494
S113175029C180E39CE19BBD8ABD08958CED9DE188
S11317609BBD8ABD08958AE390E09BBD8ABD089520
S1131770662309F435C180E290E09BBD8ABD0895DB
S1131780662309F432C184E290E09BBD8ABD0895CA
S1131790662309F476C089E290E09BBD8ABD089572
S11317A0662309F478C081E390E09BBD8ABD089567
S11317B08BE290E09BBD8ABD0895662309F493C033
S11317C087E390E09BBD8ABD0895662309F44FC06A
S11317D088E190E09BBD8ABD0895662309F4F6C0B4
S11317E082EB94E09BBD8ABD0895662309F416C17B
S11317F08DE89AE09BBD8ABD0895662309F4D7C09D
S113180086E19EE09BBD8ABD0895662309F4F7C076
S113181080EC90E19BBD8ABD0895662309F4D1C094
S11318208FE294E09BBD8ABD0895662309F4F1C05C
S113183087E699E09BBD8ABD0895662309F4CBC071
S11318408DE89CE09BBD8ABD08958DE596E19BBD26
S11318508ABD0895662309F4E6C086E495E09BBD3D
S11318608ABD08958DEE9EE09BBD8ABD089585E1F5
S113187090E09BBD8ABD089582EB97E19BBD8ABD34
S1131880089586E290E09BBD8ABD089587EE97E0B7
S11318909BBD8ABD08958EE290E09BBD8ABD0895EC
S11318A08BEE95E09BBD8ABD08958AE791E09BBDD0
S11318B08ABD08958EE390E09BBD8ABD089589EFAB
S11318C091E09BBD8ABD08958CEB90E09BBD8ABDE1
S11318D0089580EC91E19BBD8ABD089589E090E074
S11318E09BBD8ABD089584E390E09BBD8ABD0895A5
S11318F08DE890E09BBD8ABD08958EE990E09BBD84
S11319008ABD08958DE790E09BBD8ABD089583ED5F
S113191090E09BBD8ABD08958DE590E09BBD8ABD96
S1131920089586E490E09BBD8ABD089589E690E021
S11319309BBD8ABD08958EE490E09BBD8ABD089549
S11319408BE191E09BBD8ABD089585EA96E09BBD3D
S11319508ABD08958CE792E09BBD8ABD089588EA0C
S113196091E09BBD8ABD089582E593E09BBD8ABD4D
S113197008958CEF90E09BBD8ABD089587E392E0C3
S11319809BBD8ABD08958DE391E09BBD8ABD0895FA
S113199089E190E09BBD8ABD089585E090E09BBD00
S11319A08ABD08958AE99AE19BBD8ABD08958CE4B5
S11319B09DE09BBD8ABD08958DEE93E19BBD8ABDDC
S11319C0089583EF93E09BBD8ABD08958FE694E06C
S11319D09BBD8ABD089588ED9BE09BBD8ABD08959B
S11319E08EE190E09BBD8ABD089582E290E09BBDAC
S11319F08ABD089585EF92E09BBD8ABD089580ED70
S1131A009FE09BBD8ABD08958DE090E09BBD8ABD9B
S1131A1008958FED98E09BBD8ABD089586EF99E007
S1131A209BBD8ABD08958AEF94E09BBD8ABD08954D
S1131A308634910520F08FEF809399010895FC017D
S1131A40E257FF4F0C948A1622E044E060E081E400
S1131A500C94F80926E044E060E081E40C94F80971
S1131A6022E044E061E081E40C94F80928E044E0D9
S1131A7060E084E40C94F80928E044E060E086E443
S1131A800C94F80926E044E061E082E40C94F8093F
S1131A9028E044E060E083E40C94F80928E044E0A2
S1131AA060E081E40C94F80928E044E060E087E415
S1131AB00C94F80928E044E060E085E40C94F8090B
S1131AC020E144E060E081E40C94F80924E045E07E
S1131AD060E083E40C94F80924E045E060E084E4E9
S1131AE00C94F809929A81E08093880110929E01E7
S1131AF010929D0188E090E090939C0180939B015B
S1131B000895929A81E08093880110929E01109228
S1131B109D0181E090E090939C0180939B01089546
S1131B2020E144E061E082E40C94F80928E044E018
S1131B3061E082E40C94F80928E144E060E087E481
S1131B400C94F80920E145E060E084E40C94F80981
S1131B50929A81E08093880110929E0110929D01D7
S1131B6082E090E090939C0180939B01089524E08F
S1131B7044E060E081E40C94F80926E044E060E08D
S1131B8087E40C94F80924E044E061E087E40C94D1
S1131B90F80928E044E061E087E40C94F80923E0C4
S1131BA044E060E087E40C94F80920E144E060E05C
S1131BB084E40C94F80920E145E060E083E40C94AB
S1131BC0F80922E044E061E082E40C94F80924E09E
S1131BD045E061E084E40C94F80924E044E061E029
S1131BE081E40C94F80928E044E060E082E40C9479
S1131BF0F80928E144E060E086E40C94F80927E061
S1131C0044E060E087E40C94F8098F33910520F0F8
S1131C108FEF809399010895FC01EC52FF4F0C94CF
S1131C208A1624E044E060E083E40C94F80928E098
S1131C3044E060E085E40C94F809929A81E0809392
S1131C40880110929E0110929D0181E090E0909392
S1131C509C0180939B01089528E044E060E084E4C3
S1131C600C94F80920E143E060E083E40C94F80963
S1131C7024E044E060E084E40C94F80924E043E0C8
S1131C8060E082E40C94F80927E043E060E081E43A
S1131C900C94F80924E044E060E086E40C94F8092C
S1131CA020E142E060E082E40C94F80920E143E0A2
S1131CB060E081E40C94F80928E044E060E083E407
S1131CC00C94F80920E143E060E084E40C94F80902
S1131CD020E143E060E085E40C94F809929A81E005
S1131CE08093880110929E0110929D0188E090E0FB
S1131CF090939C0180939B01089527E043E060E06A
S1131D0082E40C94F8092CE043E060E082E40C9453
S1131D10F80920E143E061E081E40C94F809929A27
S1131D2081E08093880110929E0110929D0180E1D0
S1131D3090E090939C0180939B01089524E044E0FB
S1131D4060E087E40C94F80928E042E060E082E473
S1131D500C94F80920E142E060E081E40C94F80975
S1131D6020E142E061E081E40C94F8092CE044E0D5
S1131D7060E085E40C94F80922E044E060E084E447
S1131D800C94F80922E044E060E085E40C94F8093E
S1131D9028E043E060E083E40C94F80924E043E0A5
S1131DA060E081E40C94F80928E043E060E085E415
S1131DB00C94F80928E043E060E081E40C94F8090D
S1131DC0929A81E08093880110929E0110929D0165
S1131DD084E090E090939C0180939B01089528E017
S1131DE044E060E081E40C94F8098539910520F021
S1131DF08FEF809399010895FC01ED5EFE4F0C94E2
S1131E008A1624E043E060E087E40C94F80922E0B9
S1131E1043E060E081E40C94F809929A81E08093B5
S1131E20880110929E0110929D0182E090E09093AF
S1131E309C0180939B01089522E044E060E083E4E8
S1131E400C94F80922E044E060E085E40C94F8097D
S1131E5024E044E060E084E40C94F80922E044E0E7
S1131E6060E083E40C94F809929A81E080938801FD
S1131E7010929E0110929D0182E090E090939C014B
S1131E8080939B01089522E044E060E083E40C9495
S1131E90F809929A81E08093880110929E01109231
S1131EA09D0182E090E090939C0180939B010895B2
S1131EB022E044E060E083E40C94F809929A81E023
S1131EC08093880110929E0110929D0181E090E020
S1131ED090939C0180939B01089522E044E060E08C
S1131EE083E40C94F809929A81E08093880110921B
S1131EF09E0110929D0180E190E090939C0180935B
S1131F009B01089522E044E060E085E40C94F80924
S1131F1022E044E060E084E40C94F80922E044E028
S1131F2060E083E40C94F809929A81E0809388013C
S1131F3010929E0110929D0182E090E090939C018A
S1131F4080939B01089522E044E060E083E40C94D4
S1131F50F809929A81E08093880110929E01109270
S1131F609D0182E090E090939C0180939B010895F1
S1131F7022E044E060E083E40C94F809929A81E062
S1131F808093880110929E0110929D0181E090E05F
S1131F9090939C0180939B01089522E044E060E0CB
S1131FA083E40C94F809929A81E08093880110925A
S1131FB09E0110929D0184E090E090939C01809397
S1131FC09B01089524E043E060E087E40C94F80961
S1131FD022E043E060E081E40C94F809929A81E005
S1131FE08093880110929E0110929D0182E090E0FE
S1131FF090939C0180939B01089522E044E060E06B
S113200083E40C94F80922E044E060E085E40C9455
S1132010F80924E044E060E084E40C94F80922E048
S113202044E060E083E40C94F809929A81E08093A0
S1132030880110929E0110929D0182E090E090939D
S11320409C0180939B01089522E044E060E083E4D6
S11320500C94F809929A81E08093880110929E0171
S113206010929D0182E090E090939C0180939B01EB
S1132070089522E044E060E083E40C94F809929A25
S113208081E08093880110929E0110929D0181E06D
S113209090E090939C0180939B01089522E044E09A
S11320A060E083E40C94F809929A81E080938801BB
S11320B010929E0110929D018AE090E090939C0101
S11320C080939B01089524E044E060E083E40C9451
S11320D0F809929A81E08093880110929E011092EF
S11320E09D0184E090E090939C0180939B0108956E
S11320F022E044E060E084E40C94F809929A81E0E0
S11321008093880110929E0110929D0182E090E0DC
S113211090939C0180939B01089524E044E061E046
S113212085E40C94F809929A81E0809388011092D6
S11321309E0110929D0184E090E090939C01809315
S11321409B01089522E044E060E084E40C94F809E3
S113215022E044E060E083E40C94F80922E043E0E8
S113216060E081E40C94F809929A81E080938801FC
S113217010929E0110929D0182E090E090939C0148
S113218080939B01089522E044E060E083E40C9492
S1132190F80922E043E060E081E40C94F80922E0CD
S11321A043E061E081E40C94F809929A81E0809321
S11321B0880110929E0110929D0182E090E090931C
S11321C09C0180939B01089522E044E060E085E453
S11321D00C94F809929A81E08093880110929E01F0
S11321E010929D0182E090E090939C0180939B016A
S11321F0089522E044E061E085E40C94F80922E0CB
S113220044E060E086E40C94F80922E044E061E0F4
S113221087E40C94F80922E044E060E087E40C943D
S1132220F809929A81E08093880110929E0110929D
S11322309D0188E090E090939C0180939B01089518
S113224024E044E060E087E40C94F809929A81E089
S11322508093880110929E0110929D0181E090E08C
S113226090939C0180939B01089521E044E060E0F9
S113227087E40C94F809929A81E080938801109283
S11322809E0110929D0182E090E090939C018093C6
S11322909B01089522E044E060E087E40C94F8098F
S11322A0929A81E08093880110929E0110929D0180
S11322B082E090E090939C0180939B01089522E03A
S11322C043E060E085E40C94F809929A81E08093FD
S11322D0880110929E0110929D0182E090E09093FB
S11322E09C0180939B01089522E043E061E085E432
S11322F00C94F80922E043E060E086E40C94F809C9
S113230022E043E061E087E40C94F80922E043E032
S113231060E087E40C94F809929A81E08093880144
S113232010929E0110929D0184E090E090939C0194
S113233080939B01089522E044E060E084E40C94DF
S1132340F80922E044E060E083E40C94F80922E018
S113235043E060E081E40C94F809929A81E0809370
S1132360880110929E0110929D0182E090E090936A
S11323709C0180939B01089522E044E060E083E4A3
S11323800C94F80922E043E060E081E40C94F8093D
S113239022E043E061E081E40C94F809929A81E040
S11323A08093880110929E0110929D0182E090E03A
S11323B090939C0180939B01089522E044E060E0A7
S11323C085E40C94F809929A81E080938801109234
S11323D09E0110929D0182E090E090939C01809375
S11323E09B01089522E044E061E085E40C94F8093F
S11323F022E044E060E086E40C94F80922E044E042
S113240061E087E40C94F80922E044E060E087E4AA
S11324100C94F809929A81E08093880110929E01AD
S113242010929D0188E090E090939C0180939B0121
S1132430089522E043E060E082E40C94F80922E08D
S113244044E060E084E40C94F80922E044E060E0B5
S113245083E40C94F809929A81E0809388011092A5
S11324609E0110929D0182E090E090939C018093E4
S11324709B01089522E044E060E085E40C94F809AF
S1132480929A81E08093880110929E0110929D019E
S113249082E090E090939C0180939B01089522E058
S11324A044E060E087E40C94F80922E044E060E052
S11324B086E40C94F80924E044E060E081E40C94A0
S11324C0F80922E044E060E087E40C94F809929A69
S11324D081E08093880110929E0110929D0181E019
S11324E090E090939C0180939B01089522E044E046
S11324F060E085E40C94F80923E043E060E087E4BD
S11325000C94F80924E043E060E081E40C94F809B9
S113251022E043E061E082E40C94F809929A81E0BD
S11325208093880110929E0110929D0182E090E0B8
S113253090939C0180939B01089522E043E060E026
S113254082E40C94F809929A81E0809388011092B5
S11325509E0110929D0182E090E090939C018093F3
S11325609B01089522E043E060E081E40C94F809C3
S1132570929A81E08093880110929E0110929D01AD
S113258082E090E090939C0180939B01089524E065
S113259043E060E085E40C94F809929A81E080932A
S11325A0880110929E0110929D0183E090E0909327
S11325B09C0180939B01089522E043E060E087E45E
S11325C00C94F809929A81E08093880110929E01FC
S11325D010929D0182E090E090939C0180939B0176
S11325E0089525E044E060E083E40C94F809929AAD
S11325F081E08093880110929E0110929D0184E0F5
S113260090E090939C0180939B01089522E043E025
S113261060E082E40C94F80922E044E060E084E4A1
S11326200C94F80922E044E060E083E40C94F80997
S1132630929A81E08093880110929E0110929D01EC
S113264082E090E090939C0180939B01089522E0A6
S113265044E060E085E40C94F809929A81E0809368
S1132660880110929E0110929D0182E090E0909367
S11326709C0180939B01089522E044E060E087E49C
S11326800C94F80922E044E060E086E40C94F80934
S113269024E044E060E081E40C94F80922E044E0A2
S11326A060E087E40C94F809929A81E080938801B1
S11326B010929E0110929D0181E090E090939C0104
S11326C080939B01089522E044E060E085E40C944B
S11326D0F80923E043E060E087E40C94F80924E07F
S11326E043E060E081E40C94F80922E043E061E017
S11326F082E40C94F809929A81E080938801109204
S11327009E0110929D0182E090E090939C01809341
S11327109B01089522E043E060E082E40C94F80910
S1132720929A81E08093880110929E0110929D01FB
S113273082E090E090939C0180939B01089522E0B5
S113274043E060E081E40C94F809929A81E080937C
S1132750880110929E0110929D0182E090E0909376
S11327609C0180939B01089524E043E060E085E4AC
S11327700C94F809929A81E08093880110929E014A
S113278010929D0184E090E090939C0180939B01C2
S1132790089522E043E060E087E40C94F80925E022
S11327A044E060E083E40C94F809929A81E0809319
S11327B0880110929E0110929D0188E090E0909310
S11327C09C0180939B01089528E042E060E087E447
S11327D00C94F80928E044E060E087E40C94F809DC
S11327E024E044E060E085E40C94F80922E044E04D
S11327F060E083E40C94F809929A81E08093880164
S113280010929E0110929D0182E090E090939C01B1
S113281080939B01089522E044E060E085E40C94F9
S1132820F809929A81E08093880110929E01109297
S11328309D0181E090E090939C0180939B01089519
S113284023E044E060E085E40C94F809929A81E086
S11328508093880110929E0110929D0181E090E086
S113286090939C0180939B01089521E044E060E0F3
S113287085E40C94F809929A81E08093880110927F
S11328809E0110929D0188E090E090939C018093BA
S11328909B0108958F31910520F08FEF809399016A
S11328A00895FC01E855FE4F0C948A16929A81E033
S11328B08093880110929E0110929D0181E090E026
S11328C090939C0180939B01089524E045E060E08F
S11328D085E40C94F80927E044E060E085E40C9476
S11328E0F80927E044E061E085E40C94F809929A41
S11328F081E08093880110929E0110929D0185E0F1
S113290090E090939C0180939B01089528E045E01A
S113291060E085E40C94F80923E044E061E085E498
S11329200C94F80923E044E060E085E40C94F80991
S113293028E045E060E087E40C94F80924E045E0F1
S113294061E085E40C94F80923E045E060E085E467
S11329500C94F80924E045E061E087E40C94F8095C
S113296028E045E061E087E40C94F809843591059A
S113297020F08FEF809399010895FC01E953FE4FF5
S11329800C948A16929A81E08093880110929E0199
S113299010929D0181E090E090939C0180939B01B3
S11329A0089523E044E060E085E40C94F80923E012
S11329B045E060E085E40C94F80923E044E060E03D
S11329C086E40C94F809929A81E08093880110922D
S11329D09E0110929D0184E090E090939C0180936D
S11329E09B01089524E045E060E084E40C94F80938
S11329F023E045E060E083E40C94F80923E045E03B
S1132A0060E084E40C94F80923E044E060E084E4AA
S1132A100C94F80920E145E060E083E40C94F809A3
S1132A2024E044E060E085E40C94F809929A81E0A3
S1132A308093880110929E0110929D0188E090E09D
S1132A4090939C0180939B01089524E044E060E00E
S1132A5082E40C94F80924E045E060E083E40C94FB
S1132A60F80920E144E060E081E40C94F80928E0EE
S1132A7044E060E081E40C94F80920E145E060E082
S1132A8085E40C94F80924E044E060E083E40C94C9
S1132A90F80928E045E060E083E40C94F80920E1BB
S1132AA044E060E083E40C94F80924E043E060E04F
S1132AB082E40C94F80920E144E060E082E40C94A0
S1132AC0F80920E243E060E082E40C94F8098230E3
S1132AD0A9F040F4882371F0813061F4862F90E0EE
S1132AE00C94050E833071F0843021F4862F90E02D
S1132AF00C94B614862F90E00C94180D862F90E059
S1132B000C94F50E862F90E00C944A1410929901BF
S1132B108EB58C7F8EBD929A81E080938801089552
S1132B20109299018EB583608EBD9298109288019F
S1132B306091990180919A010C94671587B780611F
S1132B4087BF1FBC8EB588608EBD10927A0081E36A
S1132B5090E09BBD8ABD109299018EB58C7F8EBD8D
S1132B60929A81E08093880110929E0110929D01B7
S1132B7010929C0110929B011092990110929A015B
S1132B8008951F920F920FB60F9211240BB60F9255
S1132B902F933F934F935F936F937F938F939F9361
S1132BA0AF93BF93EF93FF9380918801811103C08A
S1132BB082B3805882BB20919D0130919E01809107
S1132BC09B0190919C012817390758F08091990135
S1132BD08F5F809399016091990180919A010E947D
S1132BE06715FF91EF91BF91AF919F918F917F9165
S1132BF06F915F914F913F912F910F900BBE0F906A
S1132C000FBE0F901F9018958AB39FEF9ABB87B39E
S1132C10876F87BB8F9A82B1886482B98091610083
S1132C208860809361009BBB0E9401060E94820819
S1132C300E94490682E291E00E9444080E94D7055E
S1132C4087B7806487BF85B5896785BD80918B0010
S1132C50826880938B0080918A00896180938A00C6
S1132C608FEF9FE0909381008093800085E595E04D
S1132C70909387008093860087E687B987E886B9B2
S1132C80789487E383BD0E949E150E9490159FEF60
S1132C9080EF60E150E240E330E4209168012BBB17
S1132CA018BAEFE1F3E03197F1F700C000009BBBE5
S1132CB088BB209169012BBB68BBEFE1F3E031973E
S1132CC0F1F700C000009BBB88BB20916A012BBBBD
S1132CD058BBEFE1F3E03197F1F700C000009BBB74
S1132CE088BB20916B012BBB48BBEFE1F3E031972C
S1132CF0F1F700C000009BBB88BB20916C012BBB8B
S1132D0038BBEFE1F3E03197F1F700C000009BBB63
S1132D1088BBC3CFEE0FFF1F0024001C0BBE07901F
S10D2D20F691E02D0994F894FFCF1A
S1132D2AFF07000100370000000102000200000151
S1132D3A0100000200020100C0F9A4B0999282F8CD
S1132D4A80902020202020202D3E213C2D20202050
S1132D5A2020004E65787420416C61726D3A2020FF
S1132D6A2020200020202057616B652055702021E7
S1132D7A212120200020446F6E74206D6973732012
S1092D8A42555321200014
S9030000FC
