:100000000C941B020C943A020C943A020C943A029F
:100010000C943A020C943A020C943A020C943A0270
:100020000C943A020C943A020C945A020C943A0240
:100030000C948B150C943A020C943A020C943A02EC
:100040000C94D1030C943A020C943A020C943A02A8
:100050000C943A020C943A020C943A020C943A0230
:100060000C943A020C943A020C943A020C943A0220
:100070000C943A020C943A020C943A020C943A0210
:100080000C943A020C943A020C943A02F409FE09D8
:10009000080A120A1D0A280A330AE009EA09890B2C
:1000A000810B7C0BA60B990BA10B910B5A0B520BDE
:1000B0004D0B450BAE0B620B380B200BCE0B770BA9
:1000C0006F0B670BEE0B280BDE0B300BFB0BC60B1D
:1000D000E60B400BBE0BB60BD60B1B0BE90AE10A75
:1000E000F10AF30BD40ACC0AF60AAF0A130BDC0AA6
:1000F000BF0AB70A030BC70AFB0AA70A8D0A0B0B34
:100100007D0A750A9A0A920A9F0A700A850A580A95
:10011000680A530A4B0A430A3E0A600A050D230D7A
:10012000FF0C110DF30CF90CF30CF90C290D050D56
:10013000230DFF0C110D0B0DED0C0B0DED0C590DDE
:10014000980D4A0DC80D4A0D8C0D860DED0C5F0DF6
:10015000ED0C710D170DB60DF30CAA0D2F0DB00D92
:10016000350DBC0D800D1D0D170D650D3B0D050DDD
:10017000230DFF0C110DF30CF90CF30CF90C290DE8
:10018000050D920D1D0DFF0C0B0DED0C0B0DED0C67
:10019000590D9E0D6B0D290DA40D5F0D2F0D350D05
:1001A000170D1D0DC20D3B0DE00D070EDA0D010EF2
:1001B0008B0E850EDA0D070E0D0EE60D970EDA0D7D
:1001C000E00D010EDA0D4C0EDA0DF50DE00D250EE9
:1001D0000D0EE60D1F0EA90EF50D130EB80E670ECF
:1001E000130E7F0EDA0DE00D010EDA0D460EE60D50
:1001F000070EDA0DF50DE00D250E0D0EE60DA30E22
:10020000370E310EFB0D2B0E190EFB0D730E790EF2
:100210006D0E370E310EFB0D2B0E190E910E9D0E2D
:100220001F0E520E580EFE13EF13E913DA13D413F8
:10023000C513BF13B913B313AD139E1398139213C1
:1002400083137D136E1368135913531344133E1312
:10025000381332132C131D13171311130B1305131B
:10026000F612F012E112DB12D512CF12C012BA123E
:10027000AB12A5129612901281127B126C126612AA
:10028000571251124B1245123F1230122A122412E9
:100290001E12181209120312F411EE11E811E211E4
:1002A000D311CD11C711C111BB11AC11A6119711FA
:1002B00091118B118511761170116A11641155110C
:1002C0004F11491143113D112E112811191113110C
:1002D0000411FE10EF10E910DA10D410CE10C8107F
:1002E000C210B310AD109E10981092108C107D109B
:1002F000771071106B105C105610471041103210BF
:100300002C101D10171008100210F30FED0FDE0F48
:10031000D80FD20FCC0FC60FB70FB10FAB0F9C0F7A
:10032000960F870F810F720F6C0F5D0F570F510FD4
:100330004B0F3C0F360F270F210F120F0C0FFD0E26
:10034000F70EF10EEB0EE50ED60ED00ECA0E04140B
:1003500034141F1434141F1434141F145B141F148A
:100360005B1440142E1473142E1461144F143A1499
:100370001F143A141F143A141F1455141F14551443
:10038000401467146D141F142E1479144F14AC14F8
:100390009A148B149A148B149A148B141815AC1489
:1003A000CD148B14CD148B14CD148B142A15AC14CE
:1003B0009A148B149A148B149A148B140C15A6147B
:1003C0008B14A6148B14A6148B14D914C1148B147B
:1003D000C1148B14C1148B14FA14AC149A148B141A
:1003E0009A148B149A148B141E15A6148B14A6142D
:1003F0008B14A614D914C7148B14C7148B14C714E8
:100400008B142415EE14A0148B14A0148B14BB149D
:10041000D314F414A0148B14A0148B14BB14D31491
:10042000EE14A0148B14A0148B14BB141215DF143B
:100430000015DF14061511241FBECFEFD0E1DEBF7B
:10044000CDBF11E0A0E0B1E0EEE5FCE200E00BBFC3
:1004500002C007900D92A636B107D9F721E0A6E6B3
:10046000B1E001C01D92AF39B207E1F70E94CE158D
:100470000C942D160C94000087B7806487BF85B557
:100480008A6785BD0895CF9390E598BB1ABACFEFE0
:10049000CBBB000064E00E94B60566E00E94B60592
:1004A00067E00E94B60565E00E94B605CABB000081
:1004B000CF9108951F920F920FB60F9211240BB691
:1004C0000F922F933F934F935F936F937F938F93ED
:1004D0009F93AF93BF93EF93FF93809177018F5FCB
:1004E000803499F1809377018FEF8BBB80EF88BBCD
:1004F0008AE08A95F1F700C0E0917501F0E0E859D3
:10050000FE4F80818BBB809175018295807F88BB77
:10051000809175018F5F8530A8F010927501FF9171
:10052000EF91BF91AF919F918F917F916F915F916B
:100530004F913F912F910F900BBE0F900FBE0F90D8
:100540001F90189580937501EACF109277018091E2
:10055000670182FF10C0809176018F5F80937601E2
:10056000877049F480919D0190919E01019690932E
:100570009E0180939D01809167010E9443028093B8
:100580006701B2CF8091670185FF10C0809107019C
:100590008D3008F5809107018C3071F18091070151
:1005A000882319F11092660180E008958091660118
:1005B000882351F0809107018C30A1F380910701CD
:1005C000845F80930701EECF809107018C3051F753
:1005D00010920701E7CF809107018C5080930701AB
:1005E00081E08093660180E008958CE080930701AC
:1005F0001092660180E0089581E080936601D4CF77
:100600001F93CF93DF93C82F162FD82F87FD09C0D4
:10061000C127C5FD0E94C2028D2FDF91CF911F918E
:100620000895DB7780910301865F8093030160E08A
:1006300081E00E94900682E291E00E940D0867E04E
:1006400082E00E949006809104018A3070F08091CF
:1006500004010E94CF068AE30E94F50780910301FE
:100660000E94CF060E944F15D3CF80E30E94F5076A
:10067000EECF9091050180916D01981761F1809105
:1006800005018C3320F1809105018C538093050185
:10069000809106018F5F80930601809106018C3363
:1006A000B0F0809106018C53809306018091070180
:1006B0008F5F809307018091670185FF0EC0809155
:1006C00007018C30D1F0809107018D3080F480914A
:1006D000050180936D0180E00895809107018831C4
:1006E000B0F380910701885180930701F0CF80918A
:1006F00007018C5080930701EACF809166018058F2
:1007000080936601E4CF9DEC699F912D112496950D
:10071000969596953AE0939F60191124213071F0D7
:1007200098F0233021F0243049F08FEB089586FDB6
:1007300011C082FD07C0862F0C94DD0586FD18C010
:1007400082FF1FC088E8089586FD04C082FF1CC098
:1007500089E808958DEC489F812D11248695869512
:1007600086959AE0899F40191124842F0C94DD0509
:100770008DEC489F812D11248695869586950C9445
:10078000DD05892F0C94DD0585FFD5CF862F0E94CE
:10079000DD05909166019795992797959095892306
:1007A00008951F920F920FB60F9211240BB60F925D
:1007B0002F933F934F935F936F937F938F939F9369
:1007C000AF93BF93EF93FF93809105018F5F809369
:1007D00005010E9439038091670182FF0CC080915E
:1007E000050160E080FF4DC081E00E94900683E338
:1007F00091E00E940D088091050180FD4DC08FEFB2
:1008000080936A0140910301609106018091670124
:1008100020E00E948303809368014091030160916E
:1008200006018091670121E00E94830380936901A2
:1008300040910401609107018091670123E00E94CB
:10084000830380936B0140910401609107018091C3
:10085000670124E00E94830380936C01FF91EF9174
:10086000BF91AF919F918F917F916F915F914F91C8
:100870003F912F910F900BBE0F900FBE0F901F90C6
:10088000189581E00E94900684E491E00E940D0892
:100890008091050180FFB3CF8CEF80936A01B2CFC6
:1008A000CF93C82F0E94AD0580937401382F337009
:1008B00030937301982F969596959370909372014B
:1008C000C4FF5EC0209106018091070144E0E091E1
:1008D0007101EE0FEE0FE92B90937101F0E0E85FEC
:1008E000FE4F9081913009F4B3C0923009F450C0AA
:1008F0009091700194300CF453C0109270018F5F8E
:10090000E0916F01EE0FEE0FE32BF0E0E85FFE4F9A
:10091000908130936F01913009F494C0923009F4C2
:100920008BC090916E0194300CF445C010926E0112
:100930002F5F463009F448C0443009F499C0409113
:10094000000150910101BA0132E38302600D711D73
:100950001124CB0162E32602800D911D1124811523
:1009600070E197070CF47AC08FEF9FE0909301013C
:10097000809300019093870080938600CF91089523
:10098000C6FF15C0209103018091040146E09FCF6E
:100990009091700191509093700194300CF0ADCF14
:1009A0009D3F0CF0ADCF109270018150A9CF40E077
:1009B00020E080E08CCF9D3F0CF0BBCF10926E0109
:1009C0002150463009F0B8CF2C330CF089C027FDF8
:1009D00091C088310CF088C087FD87E12093030126
:1009E00080930401409103016091050120E08C2F68
:1009F0000E94830380936801409103016091050187
:100A000021E08C2F0E9483038093690140910401AF
:100A10006091060123E08C2F0E94830380936B0179
:100A2000409104016091060124E08C2F0E94830311
:100A300080936C01CF91089590916E0191509093A5
:100A40006E0171CF90916E019F5F90936E016BCF9D
:100A5000909170019F5F909370014CCF833391050B
:100A600014F484E390E0909301018093000182CF1D
:100A70002C33E4F527FD40C08831D4F587FD87E1AC
:100A80001092050120930601809307014091030114
:100A90006091060120E08C2F0E94830380936801FF
:100AA000409103016091060121E08C2F0E94830395
:100AB00080936901409104016091070123E08C2F2C
:100AC0000E94830380936B014091040160910701B0
:100AD00024E08C2F0E94830380936C01CF910895B2
:100AE0002C5388310CF478CF80E078CF2C53C4CFCE
:100AF00080E0C6CF245C6DCF245CBECF80B7886019
:100B000080BF87B7816087BF83B7856083BF089543
:100B1000482FE82FF0E099B3EE0FFF1FE858FE4F83
:100B200020813181220F331F306E892F90E002C067
:100B3000959587954A95E2F781709927282B392B4F
:100B40003183208381E02115304F09F080E0089542
:100B500080E58DB981E08EB908951E9A8FB9779B93
:100B6000FECF1E98C09AC0988FB10895E62FF0E08E
:100B700099B3EE0FFF1FE858FE4F20813181220FFD
:100B8000331FA901506E292F30E0062E02C0359583
:100B900027950A94E2F721703327242B352B3183D4
:100BA00020832115304F09F0089521E030E001C085
:100BB000220F6A95EAF7822708958A3030F4E82FE9
:100BC000F0E0E85EFE4F808108958FEC089587E69F
:100BD00087B987E886B90895369A349BFECF349A50
:100BE00085B10895EBE8F0E0808182688083EAE8CF
:100BF000F0E08081896180838FEF9FE09093810096
:100C00008093800085E595E090938700809386002F
:100C10000895E2E6F0E08081886080838081877FAC
:100C2000808308951FB8779BFECF81E08FB9779BB3
:100C3000FECF8091620088608093620080916200A4
:100C4000877F809362008FE891E00197F1F700C001
:100C500000008FE39FE10197F1F700C000000895C5
:100C60001FB8779BFECF80E88FB9779BFECF80912E
:100C7000620088608093620080916200877F809329
:100C800062008FE891E00197F1F700C0000008953D
:100C90001FB8779BFECF80EC8FB9779BFECF8091FA
:100CA000620088608093620080916200877F8093F9
:100CB00062008FE891E00197F1F700C0000008950D
:100CC0001FB8779BFECF8FE08FB9779BFECF8091C7
:100CD000620088608093620080916200877F8093C9
:100CE00062008FE891E00197F1F700C000000895DD
:100CF0001FB8779BFECF8CE08FB9779BFECF80919A
:100D0000620088608093620080916200877F809398
:100D100062008FE891E00197F1F700C000000895AC
:100D2000603120F4813019F08230C9F008956058A4
:100D30001FB8779BFECF6FB9779BFECF8091620083
:100D400088608093620080916200877F8093620058
:100D50008FE891E00197F1F700C00000089560541A
:100D6000E7CF20E130E041E090E24FB9779BFECF42
:100D70009FB9779BFECF809162008860809362006C
:100D800080916200877F80936200EFE8F1E0319705
:100D9000F1F700C000002150310939F70895843679
:100DA00008F45BC09CE9980F943608F459C0885C3D
:100DB00022E391E09FB9779BFECF2FB9779BFECFBF
:100DC0009091620098609093620090916200977F8A
:100DD00090936200EFE8F1E03197F1F700C0000076
:100DE0008A3008F440C090E09F5F8A508A30E0F774
:100DF00021E02FB9779BFECF905D9FB9779BFECF07
:100E00009091620098609093620090916200977F49
:100E100090936200EFE8F1E03197F1F700C0000035
:100E20008823C9F0805D91E09FB9779BFECF8FB991
:100E3000779BFECF809162008860809362008091F2
:100E40006200877F809362008FE891E00197F1F75D
:100E500000C00000089580E3E6CF8A3020F6E0CF9E
:100E6000892F21E3A6CF90E0C3CF803127E29207FC
:100E700008F4A5C020E02F5F80519742803137E20F
:100E80009307C8F731E03FB9779BFECF205D2FB9BC
:100E9000779BFECF20916200286020936200209112
:100EA0006200277F20936200EFE8F1E03197F1F7CD
:100EB00000C00000883EF3E09F0708F494C020E0E3
:100EC0002F5F885E9340883E33E09307C8F731E098
:100ED0003FB9779BFECF205D2FB9779BFECF209146
:100EE000620028602093620020916200277F209397
:100EF0006200EFE8F1E03197F1F700C000008436BE
:100F0000910508F46CC020E02F5F84569109843667
:100F10009105D0F731E03FB9779BFECF205D2FB927
:100F2000779BFECF20916200286020936200209181
:100F30006200277F20936200EFE8F1E03197F1F73C
:100F400000C000008A30910508F447C020E02F5F00
:100F50000A978A309105D8F731E03FB9779BFECFE9
:100F6000205D2FB9779BFECF2091620028602093EF
:100F7000620020916200277F20936200EFE8F1E099
:100F80003197F1F700C00000009759F1805D91E0C2
:100F90009FB9779BFECF8FB9779BFECF8091620080
:100FA00088608093620080916200877F80936200F6
:100FB0008FE891E00197F1F700C000000895883EA6
:100FC00023E0920708F07BCF8436910508F09BCF91
:100FD0008A30910508F0BACFD7CF20E0BDCF20E00E
:100FE00099CF80E3D4CF20E072CF91E09FB9779B77
:100FF000FECF8FB9779BFECF80916200886080938F
:10100000620080916200877F809362008FE891E0A8
:101010000197F1F700C000000895FC0140E050E0A6
:1010200060E071E07FB9779BFECFDF01A40FB51FB1
:101030008C918FB9779BFECF9091620098609093CE
:10104000620090916200977F909362008FE891E038
:101050000197F1F700C000006F5F462F50E0DF01FD
:101060000D900020E9F79D012E1B3F0B2250310906
:1010700024173507B8F60895E1E6F0E0808188602E
:10108000808388B388BB87B3876087BB80E58DB9D1
:1010900081E08EB90895809161008860809361003D
:1010A0008FE59AEE0197F1F700C000001FB8779B1B
:1010B000FECF88E38FB9779BFECF80916200886076
:1010C0008093620080916200877F809362008FE846
:1010D00091E00197F1F700C000008FE19EE40197D5
:1010E000F1F700C000001FB8779BFECF88E08FB9F2
:1010F000779BFECF80916200886080936200809130
:101100006200877F809362008FE891E00197F1F79A
:1011100000C000008FE39FE10197F1F700C00000DD
:101120001FB8779BFECF86E08FB9779BFECF80916B
:10113000620088608093620080916200877F809364
:1011400062008FE891E00197F1F700C000001FB83E
:10115000779BFECF80E48FB9779BFECF80916200B2
:1011600088608093620080916200877F8093620034
:101170008FE891E00197F1F700C0000081E08FB99E
:10118000779BFECF8EE08FB9779BFECF8091620078
:1011900088608093620080916200877F8093620004
:1011A0008FE891E00197F1F700C0000081E08FB96E
:1011B000779BFECF8BE18FB9779BFECF809162004A
:1011C00088608093620080916200877F80936200D4
:1011D0008FE891E00197F1F700C0000081E08FB93E
:1011E000779BFECF81E18FB9779BFECF8091620024
:1011F00088608093620080916200877F80936200A4
:101200008FE891E00197F1F700C0000081E08FB90D
:10121000779BFECF81E18FB9779BFECF80916200F3
:1012200088608093620080916200877F8093620073
:101230008FE891E00197F1F700C0000081E08FB9DD
:10124000779BFECF81E18FB9779BFECF80916200C3
:1012500088608093620080916200877F8093620043
:101260008FE891E00197F1F700C0000081E08FB9AD
:10127000779BFECF81E18FB9779BFECF8091620093
:1012800088608093620080916200877F8093620013
:101290008FE891E00197F1F700C0000081E08FB97D
:1012A000779BFECF81E18FB9779BFECF8091620063
:1012B00088608093620080916200877F80936200E3
:1012C0008FE891E00197F1F700C0000081E08FB94D
:1012D000779BFECF8FE18FB9779BFECF8091620025
:1012E00088608093620080916200877F80936200B3
:1012F0008FE891E00197F1F700C000001FB8779BDD
:10130000FECF81E08FB9779BFECF8091620088602D
:101310008093620080916200877F809362008FE8F3
:1013200091E00197F1F700C000008FE19EE4019782
:10133000F1F700C000001FB8779BFECF8CE08FB99B
:10134000779BFECF809162008860809362008091DD
:101350006200877F809362008FE891E00197F1F748
:1013600000C000000895929A91E090938801109235
:101370009E0110929D0190E090939C0180939B01AF
:101380000895582F92981092880110929E01109201
:101390009D0130E030939C0120939B01842F90E0CD
:1013A0008930910518F01BBC1ABC08958A5B9F4FC9
:1013B000FC01852F550F990BAA0BBB0B0C9424161F
:1013C000FC01E154F109E730F10578F7E15BFF4FEB
:1013D0000C942416FC01E154F109E730F10528F7DB
:1013E000EA5AFF4F0C942416FC01E154F109E7304E
:1013F000F105D8F6E35AFF4F0C942416FC01E15492
:10140000F109E730F10588F6EC59FF4F0C942416EA
:10141000FC01E154F109E730F10538F6E559FF4FD9
:101420000C942416FC01E154F109E730F10508F0B1
:10143000BCCFEE58FF4F0C942416FC01E154F10987
:10144000E730F10508F0B1CFE758FF4F0C942416B0
:10145000FC01E154F109E730F10508F0A6CFE058AE
:10146000FF4F0C942416FC01E154F109E730F1051B
:1014700008F09BCFE957FF4F0C94241688E590E0C5
:101480009BBD8ABD0895662309F40FC283E690E0F0
:101490009BBD8ABD0895662309F411C28FE690E0D2
:1014A0009BBD8ABD089586E790E09BBD8ABD0895E7
:1014B000662309F4FFC18AE490E09BBD8ABD0895CC
:1014C000662309F401C283E590E09BBD8ABD0895BF
:1014D000662309F4B8C182E490E09BBD8ABD0895FB
:1014E00081EB90E09BBD8ABD0895662309F4D3C1CA
:1014F00085E890E09BBD8ABD0895662309F4C1C1CB
:1015000085E990E09BBD8ABD0895662309F4BEC1BC
:1015100087EA90E09BBD8ABD089584E691E09BBD7B
:101520008ABD0895662309F4BBC180EE90E09BBD9F
:101530008ABD08958DEE90E09BBD8ABD0895662317
:1015400009F48BC187EC90E09BBD8ABD08956623AA
:1015500009F474C180E991E09BBD8ABD08956623BA
:1015600009F4CBC184E893E09BBD8ABD089566234E
:1015700009F4AFC18BE291E09BBD8ABD089566235B
:1015800009F4B1C182EA92E09BBD8ABD08958CED59
:1015900091E09BBD8ABD0895662309F459C187E196
:1015A00092E09BBD8ABD0895662309F4B0C188E529
:1015B00092E09BBD8ABD08958AEC92E09BBD8ABDF6
:1015C0000895662309F435C186E496E09BBD8ABD83
:1015D0000895662309F482C18AE097E09BBD8ABD25
:1015E000089586E995E09BBD8ABD08958AEB93E056
:1015F0009BBD8ABD0895662309F47AC181EC91E010
:101600009BBD8ABD0895662309F47CC18BE091E0FF
:101610009BBD8ABD0895662309F47EC180E591E0F3
:101620009BBD8ABD0895662309F4ADC182E293E0B3
:101630009BBD8ABD089586E797E09BBD8ABD08954E
:10164000662309F40FC18EEC92E19BBD8ABD08951B
:10165000662309F47AC18DE195E19BBD8ABD0895A9
:10166000662309F4DCC080E698E09BBD8ABD08953E
:10167000662309F492C180E190E09BBD8ABD089584
:101680008EE29BE09BBD8ABD0895662309F449C1A3
:101690008BE190E09BBD8ABD08958CE190E09BBDFD
:1016A0008ABD0895662309F441C187E090E09BBD9F
:1016B0008ABD0895662309F4DAC08BE090E09BBDF3
:1016C0008ABD089582E190E09BBD8ABD089566239E
:1016D00009F49BC089E199E19BBD8ABD0895662309
:1016E00009F429C180E39CE19BBD8ABD08958CED7E
:1016F0009DE19BBD8ABD08958AE390E09BBD8ABDB4
:101700000895662309F435C180E290E09BBD8ABD4F
:101710000895662309F432C184E290E09BBD8ABD3E
:101720000895662309F476C089E290E09BBD8ABDE6
:101730000895662309F478C081E390E09BBD8ABDDB
:1017400008958BE290E09BBD8ABD0895662309F45D
:1017500093C087E390E09BBD8ABD0895662309F49A
:101760004FC088E190E09BBD8ABD0895662309F4CF
:10177000F6C082EB94E09BBD8ABD0895662309F410
:1017800016C18DE89AE09BBD8ABD0895662309F4D1
:10179000D7C086E19EE09BBD8ABD0895662309F40B
:1017A000F7C080EC90E19BBD8ABD0895662309F4E3
:1017B000D1C08FE294E09BBD8ABD0895662309F4F1
:1017C000F1C087E699E09BBD8ABD0895662309F4C0
:1017D000CBC08DE89CE09BBD8ABD08958DE596E168
:1017E0009BBD8ABD0895662309F4E6C086E495E0B2
:1017F0009BBD8ABD08958DEE9EE09BBD8ABD089578
:1018000085E190E09BBD8ABD089582EB97E19BBD89
:101810008ABD089586E290E09BBD8ABD089587EE5B
:1018200097E09BBD8ABD08958EE290E09BBD8ABD86
:1018300008958BEE95E09BBD8ABD08958AE791E0FF
:101840009BBD8ABD08958EE390E09BBD8ABD08953F
:1018500089EF91E09BBD8ABD08958CEB90E09BBD24
:101860008ABD089580EC91E19BBD8ABD089589E011
:1018700090E09BBD8ABD089584E390E09BBD8ABD46
:1018800008958DE890E09BBD8ABD08958EE990E0B3
:101890009BBD8ABD08958DE790E09BBD8ABD0895EC
:1018A00083ED90E09BBD8ABD08958DE590E09BBDE2
:1018B0008ABD089586E490E09BBD8ABD089589E6BF
:1018C00090E09BBD8ABD08958EE490E09BBD8ABDEB
:1018D00008958BE191E09BBD8ABD089585EA96E06D
:1018E0009BBD8ABD08958CE792E09BBD8ABD08959B
:1018F00088EA91E09BBD8ABD089582E593E09BBD97
:101900008ABD08958CEF90E09BBD8ABD089587E362
:1019100092E09BBD8ABD08958DE391E09BBD8ABD99
:10192000089589E190E09BBD8ABD089585E090E02F
:101930009BBD8ABD08958AE99AE19BBD8ABD089541
:101940008CE49DE09BBD8ABD08958DEE93E19BBD27
:101950008ABD089583EF93E09BBD8ABD08958FE60D
:1019600094E09BBD8ABD089588ED9BE09BBD8ABD38
:1019700008958EE190E09BBD8ABD089582E290E0DB
:101980009BBD8ABD089585EF92E09BBD8ABD0895F9
:1019900080ED9FE09BBD8ABD08958DE090E09BBDEA
:1019A0008ABD08958FED98E09BBD8ABD089586EFAE
:1019B00099E09BBD8ABD08958AEF94E09BBD8ABDE6
:1019C00008958634910520F08FEF80939901089552
:1019D000FC01E257FF4F0C94241622E044E060E043
:1019E00081E40C94C10926E044E060E081E40C94B9
:1019F000C10922E044E061E081E40C94C10928E0DF
:101A000044E060E084E40C94C10928E044E060E034
:101A100086E40C94C10926E044E061E082E40C9481
:101A2000C10928E044E060E083E40C94C10928E0A7
:101A300044E060E081E40C94C10928E044E060E007
:101A400087E40C94C10928E044E060E085E40C944C
:101A5000C10920E144E060E081E40C94C10924E084
:101A600045E060E083E40C94C10924E045E060E0D7
:101A700084E40C94C109929A81E0809388011092C9
:101A80009E0110929D0188E090E090939C018093CC
:101A90009B010895929A81E08093880110929E01A3
:101AA00010929D0181E090E090939C0180939B01B6
:101AB000089520E144E061E082E40C94C10928E04B
:101AC00044E061E082E40C94C10928E144E060E074
:101AD00087E40C94C10920E145E060E084E40C94C3
:101AE000C109929A81E08093880110929E01109220
:101AF0009D0182E090E090939C0180939B0108956A
:101B000024E044E060E081E40C94C10926E044E074
:101B100060E087E40C94C10924E044E061E087E4DC
:101B20000C94C10928E044E061E087E40C94C10909
:101B300023E044E060E087E40C94C10920E144E044
:101B400060E084E40C94C10920E145E060E083E4B6
:101B50000C94C10922E044E061E082E40C94C109E4
:101B600024E045E061E084E40C94C10924E044E011
:101B700061E081E40C94C10928E044E060E082E483
:101B80000C94C10928E144E060E086E40C94C109AA
:101B900027E044E060E087E40C94C1098F339105AD
:101BA00020F08FEF809399010895FC01EC52FF4FD4
:101BB0000C94241624E044E060E083E40C94C10912
:101BC00028E044E060E085E40C94C109929A81E049
:101BD0008093880110929E0110929D0181E090E017
:101BE00090939C0180939B01089528E044E060E07D
:101BF00084E40C94C10920E143E060E083E40C94A8
:101C0000C10924E044E060E084E40C94C10924E0CC
:101C100043E060E082E40C94C10927E043E060E027
:101C200081E40C94C10924E044E060E086E40C9473
:101C3000C10920E142E060E082E40C94C10920E1A6
:101C400043E060E081E40C94C10928E044E060E0F6
:101C500083E40C94C10920E143E060E084E40C9447
:101C6000C10920E143E060E085E40C94C109929A47
:101C700081E08093880110929E0110929D0188E07E
:101C800090E090939C0180939B01089527E043E0AE
:101C900060E082E40C94C1092CE043E060E082E45F
:101CA0000C94C10920E143E061E081E40C94C10996
:101CB000929A81E08093880110929E0110929D017A
:101CC00080E190E090939C0180939B01089524E033
:101CD00044E060E087E40C94C10928E042E060E061
:101CE00082E40C94C10920E142E060E081E40C94BC
:101CF000C10920E142E061E081E40C94C1092CE0DB
:101D000044E060E085E40C94C10922E044E060E036
:101D100084E40C94C10922E044E060E085E40C9482
:101D2000C10928E043E060E083E40C94C10924E0A9
:101D300043E060E081E40C94C10928E043E060E006
:101D400085E40C94C10928E043E060E081E40C9450
:101D5000C109929A81E08093880110929E011092AD
:101D60009D0184E090E090939C0180939B010895F5
:101D700028E044E060E081E40C94C10985399105D4
:101D800020F08FEF809399010895FC01ED5EFE4FE6
:101D90000C94241624E043E060E087E40C94C1092D
:101DA00022E043E060E081E40C94C109929A81E072
:101DB0008093880110929E0110929D0182E090E034
:101DC00090939C0180939B01089522E044E060E0A1
:101DD00083E40C94C10922E044E060E085E40C94C3
:101DE000C10924E044E060E084E40C94C10922E0ED
:101DF00044E060E083E40C94C109929A81E080930E
:101E0000880110929E0110929D0182E090E09093D3
:101E10009C0180939B01089522E044E060E083E40C
:101E20000C94C109929A81E08093880110929E01DE
:101E300010929D0182E090E090939C0180939B0121
:101E4000089522E044E060E083E40C94C109929A92
:101E500081E08093880110929E0110929D0181E0A3
:101E600090E090939C0180939B01089522E044E0D0
:101E700060E083E40C94C109929A81E08093880128
:101E800010929E0110929D0180E190E090939C0140
:101E900080939B01089522E044E060E085E40C9487
:101EA000C10922E044E060E084E40C94C10922E02E
:101EB00044E060E083E40C94C109929A81E080934D
:101EC000880110929E0110929D0182E090E0909313
:101ED0009C0180939B01089522E044E060E083E44C
:101EE0000C94C109929A81E08093880110929E011E
:101EF00010929D0182E090E090939C0180939B0161
:101F0000089522E044E060E083E40C94C109929AD1
:101F100081E08093880110929E0110929D0181E0E2
:101F200090E090939C0180939B01089522E044E00F
:101F300060E083E40C94C109929A81E08093880167
:101F400010929E0110929D0184E090E090939C017C
:101F500080939B01089524E043E060E087E40C94C3
:101F6000C10922E043E060E081E40C94C109929A47
:101F700081E08093880110929E0110929D0182E081
:101F800090E090939C0180939B01089522E044E0AF
:101F900060E083E40C94C10922E044E060E085E461
:101FA0000C94C10924E044E060E084E40C94C1098D
:101FB00022E044E060E083E40C94C109929A81E05D
:101FC0008093880110929E0110929D0182E090E022
:101FD00090939C0180939B01089522E044E060E08F
:101FE00083E40C94C109929A81E080938801109255
:101FF0009E0110929D0182E090E090939C0180935D
:102000009B01089522E044E060E083E40C94C10960
:10201000929A81E08093880110929E0110929D0116
:1020200081E090E090939C0180939B01089522E0D1
:1020300044E060E083E40C94C109929A81E08093CB
:10204000880110929E0110929D018AE090E0909389
:102050009C0180939B01089524E044E060E083E4C8
:102060000C94C109929A81E08093880110929E019C
:1020700010929D0184E090E090939C0180939B01DD
:10208000089522E044E060E084E40C94C109929A4F
:1020900081E08093880110929E0110929D0182E060
:1020A00090E090939C0180939B01089524E044E08C
:1020B00061E085E40C94C109929A81E080938801E3
:1020C00010929E0110929D0184E090E090939C01FB
:1020D00080939B01089522E044E060E084E40C9446
:1020E000C10922E044E060E083E40C94C10922E0ED
:1020F00043E060E081E40C94C109929A81E080930E
:10210000880110929E0110929D0182E090E09093D0
:102110009C0180939B01089522E044E060E083E409
:102120000C94C10922E043E060E081E40C94C10911
:1021300022E043E061E081E40C94C109929A81E0DD
:102140008093880110929E0110929D0182E090E0A0
:1021500090939C0180939B01089522E044E060E00D
:1021600085E40C94C109929A81E0809388011092D1
:102170009E0110929D0182E090E090939C018093DB
:102180009B01089522E044E061E085E40C94C109DC
:1021900022E044E060E086E40C94C10922E044E0DF
:1021A00061E087E40C94C10922E044E060E087E448
:1021B0000C94C109929A81E08093880110929E014B
:1021C00010929D0188E090E090939C0180939B0188
:1021D000089524E044E060E087E40C94C109929AF9
:1021E00081E08093880110929E0110929D0181E010
:1021F00090E090939C0180939B01089521E044E03E
:1022000060E087E40C94C109929A81E08093880190
:1022100010929E0110929D0182E090E090939C01AB
:1022200080939B01089522E044E060E087E40C94F1
:10223000C109929A81E08093880110929E011092C8
:102240009D0182E090E090939C0180939B01089512
:1022500022E043E060E085E40C94C109929A81E0B9
:102260008093880110929E0110929D0182E090E07F
:1022700090939C0180939B01089522E043E061E0EC
:1022800085E40C94C10922E043E060E086E40C940C
:10229000C10922E043E061E087E40C94C10922E037
:1022A00043E060E087E40C94C109929A81E0809356
:1022B000880110929E0110929D0184E090E090931D
:1022C0009C0180939B01089522E044E060E084E457
:1022D0000C94C10922E044E060E083E40C94C1095D
:1022E00022E043E060E081E40C94C109929A81E02D
:1022F0008093880110929E0110929D0182E090E0EF
:1023000090939C0180939B01089522E044E060E05B
:1023100083E40C94C10922E043E060E081E40C9482
:10232000C10922E043E061E081E40C94C109929A82
:1023300081E08093880110929E0110929D0182E0BD
:1023400090E090939C0180939B01089522E044E0EB
:1023500060E085E40C94C109929A81E08093880141
:1023600010929E0110929D0182E090E090939C015A
:1023700080939B01089522E044E061E085E40C94A1
:10238000C10922E044E060E086E40C94C10922E047
:1023900044E061E087E40C94C10922E044E060E09D
:1023A00087E40C94C109929A81E08093880110928D
:1023B0009E0110929D0188E090E090939C01809393
:1023C0009B01089522E043E060E082E40C94C1099F
:1023D00022E044E060E084E40C94C10922E044E09F
:1023E00060E083E40C94C109929A81E080938801B3
:1023F00010929E0110929D0182E090E090939C01CA
:1024000080939B01089522E044E060E085E40C9411
:10241000C109929A81E08093880110929E011092E6
:102420009D0182E090E090939C0180939B01089530
:1024300022E044E060E087E40C94C10922E044E03B
:1024400060E086E40C94C10924E044E060E081E4AB
:102450000C94C10922E044E060E087E40C94C109D7
:10246000929A81E08093880110929E0110929D01C2
:1024700081E090E090939C0180939B01089522E07D
:1024800044E060E085E40C94C10923E043E060E0AF
:1024900087E40C94C10924E043E060E081E40C94FB
:1024A000C10922E043E061E082E40C94C109929A00
:1024B00081E08093880110929E0110929D0182E03C
:1024C00090E090939C0180939B01089522E043E06B
:1024D00060E082E40C94C109929A81E080938801C3
:1024E00010929E0110929D0182E090E090939C01D9
:1024F00080939B01089522E043E060E081E40C9426
:10250000C109929A81E08093880110929E011092F5
:102510009D0182E090E090939C0180939B0108953F
:1025200024E043E060E085E40C94C109929A81E0E4
:102530008093880110929E0110929D0183E090E0AB
:1025400090939C0180939B01089522E043E060E01A
:1025500087E40C94C109929A81E0809388011092DB
:102560009E0110929D0182E090E090939C018093E7
:102570009B01089525E044E060E083E40C94C109E8
:10258000929A81E08093880110929E0110929D01A1
:1025900084E090E090939C0180939B01089522E059
:1025A00043E060E082E40C94C10922E044E060E092
:1025B00084E40C94C10922E044E060E083E40C94DC
:1025C000C109929A81E08093880110929E01109235
:1025D0009D0182E090E090939C0180939B0108957F
:1025E00022E044E060E085E40C94C109929A81E025
:1025F0008093880110929E0110929D0182E090E0EC
:1026000090939C0180939B01089522E044E060E058
:1026100087E40C94C10922E044E060E086E40C9475
:10262000C10924E044E060E081E40C94C10922E0A7
:1026300044E060E087E40C94C109929A81E08093C1
:10264000880110929E0110929D0181E090E090938C
:102650009C0180939B01089522E044E060E085E4C2
:102660000C94C10923E043E060E087E40C94C109C5
:1026700024E043E060E081E40C94C10922E043E0FF
:1026800061E082E40C94C109929A81E08093880110
:1026900010929E0110929D0182E090E090939C0127
:1026A00080939B01089522E043E060E082E40C9473
:1026B000C109929A81E08093880110929E01109244
:1026C0009D0182E090E090939C0180939B0108958E
:1026D00022E043E060E081E40C94C109929A81E039
:1026E0008093880110929E0110929D0182E090E0FB
:1026F00090939C0180939B01089524E043E060E067
:1027000085E40C94C109929A81E08093880110922B
:102710009E0110929D0184E090E090939C01809333
:102720009B01089522E043E060E087E40C94C10936
:1027300025E044E060E083E40C94C109929A81E0D2
:102740008093880110929E0110929D0188E090E094
:1027500090939C0180939B01089528E042E060E003
:1027600087E40C94C10928E044E060E087E40C941D
:10277000C10924E044E060E085E40C94C10922E052
:1027800044E060E083E40C94C109929A81E0809374
:10279000880110929E0110929D0182E090E090933A
:1027A0009C0180939B01089522E044E060E085E471
:1027B0000C94C109929A81E08093880110929E0145
:1027C00010929D0181E090E090939C0180939B0189
:1027D000089523E044E060E085E40C94C109929AF6
:1027E00081E08093880110929E0110929D0181E00A
:1027F00090E090939C0180939B01089521E044E038
:1028000060E085E40C94C109929A81E0809388018C
:1028100010929E0110929D0188E090E090939C019F
:1028200080939B0108958F31910520F08FEF809365
:1028300099010895FC01E855FE4F0C942416929AD4
:1028400081E08093880110929E0110929D0181E0A9
:1028500090E090939C0180939B01089524E045E0D3
:1028600060E085E40C94C10927E044E060E085E481
:102870000C94C10927E044E061E085E40C94C109AF
:10288000929A81E08093880110929E0110929D019E
:1028900085E090E090939C0180939B01089528E04F
:1028A00045E060E085E40C94C10923E044E061E088
:1028B00085E40C94C10923E044E060E085E40C94D5
:1028C000C10928E045E060E087E40C94C10924E0F8
:1028D00045E061E085E40C94C10923E045E060E057
:1028E00085E40C94C10924E045E061E087E40C94A0
:1028F000C10928E045E061E087E40C94C109843512
:10290000910520F08FEF809399010895FC01E95320
:10291000FE4F0C942416929A81E0809388011092C5
:102920009E0110929D0181E090E090939C01809324
:102930009B01089523E044E060E085E40C94C10924
:1029400023E045E060E085E40C94C10923E044E025
:1029500060E086E40C94C109929A81E0809388013A
:1029600010929E0110929D0184E090E090939C0152
:1029700080939B01089524E045E060E084E40C949A
:10298000C10923E045E060E083E40C94C10923E041
:1029900045E060E084E40C94C10923E044E060E099
:1029A00084E40C94C10920E145E060E083E40C94E8
:1029B000C10924E044E060E085E40C94C109929AE6
:1029C00081E08093880110929E0110929D0188E021
:1029D00090E090939C0180939B01089524E044E053
:1029E00060E082E40C94C10924E045E060E083E407
:1029F0000C94C10920E144E060E081E40C94C10939
:102A000028E044E060E081E40C94C10920E145E065
:102A100060E085E40C94C10924E044E060E083E4D4
:102A20000C94C10928E045E060E083E40C94C109FE
:102A300020E144E060E083E40C94C10924E043E039
:102A400060E082E40C94C10920E144E060E082E4AB
:102A50000C94C10920E243E060E082E40C94C109D7
:102A60008230A9F040F4882371F0813061F4862F20
:102A700090E00C94CE0D833071F0843021F4862FD9
:102A800090E00C947F14862F90E00C94E10C862F3C
:102A900090E00C94BE0E862F90E00C9413141092CC
:102AA00099018EB58C7F8EBD929A81E080938801CA
:102AB0000895109299018EB583608EBD9298109200
:102AC00088016091990180919A010C94301587B723
:102AD000806187BF1FBC8EB588608EBD10927A0062
:102AE00081E390E09BBD8ABD109299018EB58C7FE9
:102AF0008EBD929A81E08093880110929E0110927F
:102B00009D0110929C0110929B011092990184E00A
:102B100080939A0108951F920F920FB60F9211247D
:102B20000BB60F922F933F934F935F936F937F93C7
:102B30008F939F93AF93BF93EF93FF9380918801FF
:102B4000811103C082B3805882BB20919D013091D6
:102B50009E0180919B0190919C012817390758F0A4
:102B6000809199018F5F8093990160919901809183
:102B70009A010E943015FF91EF91BF91AF919F9103
:102B80008F917F916F915F914F913F912F910F9016
:102B90000BBE0F900FBE0F901F9018958AB39FEF3A
:102BA0009ABB87B3876F87BB8F9A82B1886482B9DB
:102BB000809161008860809361009BBB0E94A805A2
:102BC0000E944B080E94120685E591E00E940D08C4
:102BD0000E947E0587B7806487BF85B58A6785BDFB
:102BE0000E94F2050E94E70578940E946715C0E0F4
:102BF0000DC0809167016C2F0E94000380936701D4
:102C0000C0916701809167010E9450040E94EC0509
:102C1000809583BD90910601809103019813E9CFBF
:102C200090910701809104019813E3CF809167018F
:102C30008695869531F08091670184608093670165
:102C4000D8CF0E945915F7CFEE0FFF1F0024001CAC
:0E2C50000BBE0790F691E02D0994F894FFCF8B
:102C5E00FF07000100370000000102000200000122
:102C6E000100000200020100C0F9A4B0999282F89E
:102C7E0080904E65787420416C61726D3A202020F0
:102C8E0020200020202057616B65205570202121C7
:102C9E002120200020446F6E74206D6973732042D2
:102CAE0055532120002020202020202D3E213C2D78
:062CBE0020202020200070
:00000001FF
